{
  "_format": "hh-sol-artifact-1",
  "contractName": "Raffle",
  "sourceName": "contracts/Raffle.sol",
  "abi": [
    {
      "inputs": [
        {
          "internalType": "address",
          "name": "vrfCoordinatorV2",
          "type": "address"
        },
        {
          "internalType": "uint256",
          "name": "entranceFee",
          "type": "uint256"
        },
        {
          "internalType": "bytes32",
          "name": "gasLane",
          "type": "bytes32"
        },
        {
          "internalType": "uint64",
          "name": "subscriptionId",
          "type": "uint64"
        },
        {
          "internalType": "uint32",
          "name": "callbackGasLimit",
          "type": "uint32"
        }
      ],
      "stateMutability": "nonpayable",
      "type": "constructor"
    },
    {
      "inputs": [
        {
          "internalType": "address",
          "name": "have",
          "type": "address"
        },
        {
          "internalType": "address",
          "name": "want",
          "type": "address"
        }
      ],
      "name": "OnlyCoordinatorCanFulfill",
      "type": "error"
    },
    {
      "inputs": [],
      "name": "Raffle__NotEnoughETHEntered",
      "type": "error"
    },
    {
      "inputs": [],
      "name": "Raffle__TransferFailed",
      "type": "error"
    },
    {
      "anonymous": false,
      "inputs": [
        {
          "indexed": true,
          "internalType": "address",
          "name": "player",
          "type": "address"
        }
      ],
      "name": "RaffleEnter",
      "type": "event"
    },
    {
      "anonymous": false,
      "inputs": [
        {
          "indexed": true,
          "internalType": "uint256",
          "name": "requestId",
          "type": "uint256"
        }
      ],
      "name": "RequestedRaffleWinnerId",
      "type": "event"
    },
    {
      "anonymous": false,
      "inputs": [
        {
          "indexed": false,
          "internalType": "address",
          "name": "recentWinner",
          "type": "address"
        }
      ],
      "name": "WinnerPicked",
      "type": "event"
    },
    {
      "inputs": [],
      "name": "enterRaffle",
      "outputs": [],
      "stateMutability": "payable",
      "type": "function"
    },
    {
      "inputs": [],
      "name": "getEntranceFee",
      "outputs": [
        {
          "internalType": "uint256",
          "name": "",
          "type": "uint256"
        }
      ],
      "stateMutability": "view",
      "type": "function"
    },
    {
      "inputs": [
        {
          "internalType": "uint256",
          "name": "index",
          "type": "uint256"
        }
      ],
      "name": "getPlayer",
      "outputs": [
        {
          "internalType": "address",
          "name": "",
          "type": "address"
        }
      ],
      "stateMutability": "view",
      "type": "function"
    },
    {
      "inputs": [],
      "name": "getRencentWinner",
      "outputs": [
        {
          "internalType": "address",
          "name": "",
          "type": "address"
        }
      ],
      "stateMutability": "view",
      "type": "function"
    },
    {
      "inputs": [
        {
          "internalType": "uint256",
          "name": "requestId",
          "type": "uint256"
        },
        {
          "internalType": "uint256[]",
          "name": "randomWords",
          "type": "uint256[]"
        }
      ],
      "name": "rawFulfillRandomWords",
      "outputs": [],
      "stateMutability": "nonpayable",
      "type": "function"
    },
    {
      "inputs": [],
      "name": "requestRandomWiner",
      "outputs": [],
      "stateMutability": "nonpayable",
      "type": "function"
    }
  ],
  "bytecode": "0x6101406040523480156200001257600080fd5b5060405162000f0738038062000f07833981810160405281019062000038919062000255565b848073ffffffffffffffffffffffffffffffffffffffff1660808173ffffffffffffffffffffffffffffffffffffffff1681525050508360a081815250508473ffffffffffffffffffffffffffffffffffffffff1660c08173ffffffffffffffffffffffffffffffffffffffff16815250508260e081815250508167ffffffffffffffff166101208167ffffffffffffffff16815250508063ffffffff166101008163ffffffff16815250505050505050620002dd565b600080fd5b600073ffffffffffffffffffffffffffffffffffffffff82169050919050565b60006200012182620000f4565b9050919050565b620001338162000114565b81146200013f57600080fd5b50565b600081519050620001538162000128565b92915050565b6000819050919050565b6200016e8162000159565b81146200017a57600080fd5b50565b6000815190506200018e8162000163565b92915050565b6000819050919050565b620001a98162000194565b8114620001b557600080fd5b50565b600081519050620001c9816200019e565b92915050565b600067ffffffffffffffff82169050919050565b620001ee81620001cf565b8114620001fa57600080fd5b50565b6000815190506200020e81620001e3565b92915050565b600063ffffffff82169050919050565b6200022f8162000214565b81146200023b57600080fd5b50565b6000815190506200024f8162000224565b92915050565b600080600080600060a08688031215620002745762000273620000ef565b5b6000620002848882890162000142565b955050602062000297888289016200017d565b9450506040620002aa88828901620001b8565b9350506060620002bd88828901620001fd565b9250506080620002d0888289016200023e565b9150509295509295909350565b60805160a05160c05160e0516101005161012051610bcc6200033b60003960006103f301526000610416015260006103d20152600061039601526000818161013b015261022101526000818161016101526101b50152610bcc6000f3fe6080604052600436106100555760003560e01c806309bc33a71461005a5780631fe543e3146100855780632cfcc539146100ae578063327638d9146100b8578063e55ae4e8146100e3578063eae6031814610120575b600080fd5b34801561006657600080fd5b5061006f610137565b60405161007c9190610678565b60405180910390f35b34801561009157600080fd5b506100ac60048036038101906100a7919061082c565b61015f565b005b6100b661021f565b005b3480156100c457600080fd5b506100cd610321565b6040516100da91906108c9565b60405180910390f35b3480156100ef57600080fd5b5061010a600480360381019061010591906108e4565b61034b565b60405161011791906108c9565b60405180910390f35b34801561012c57600080fd5b50610135610392565b005b60007f0000000000000000000000000000000000000000000000000000000000000000905090565b7f000000000000000000000000000000000000000000000000000000000000000073ffffffffffffffffffffffffffffffffffffffff163373ffffffffffffffffffffffffffffffffffffffff161461021157337f00000000000000000000000000000000000000000000000000000000000000006040517f1cf993f4000000000000000000000000000000000000000000000000000000008152600401610208929190610911565b60405180910390fd5b61021b82826104cc565b5050565b7f0000000000000000000000000000000000000000000000000000000000000000341015610279576040517fbd4e069500000000000000000000000000000000000000000000000000000000815260040160405180910390fd5b6000339080600181540180825580915050600190039060005260206000200160009091909190916101000a81548173ffffffffffffffffffffffffffffffffffffffff021916908373ffffffffffffffffffffffffffffffffffffffff1602179055503373ffffffffffffffffffffffffffffffffffffffff167f0805e1d667bddb8a95f0f09880cf94f403fb596ce79928d9f29b74203ba284d460405160405180910390a2565b6000600160009054906101000a900473ffffffffffffffffffffffffffffffffffffffff16905090565b60008082815481106103605761035f61093a565b5b9060005260206000200160009054906101000a900473ffffffffffffffffffffffffffffffffffffffff169050919050565b60007f000000000000000000000000000000000000000000000000000000000000000073ffffffffffffffffffffffffffffffffffffffff16635d3b1d307f00000000000000000000000000000000000000000000000000000000000000007f000000000000000000000000000000000000000000000000000000000000000060037f000000000000000000000000000000000000000000000000000000000000000060016040518663ffffffff1660e01b81526004016104579594939291906109e1565b6020604051808303816000875af1158015610476573d6000803e3d6000fd5b505050506040513d601f19601f8201168201806040525081019061049a9190610a49565b9050807f20e6488f32979e686d06d9d973b6d567758cb2b54dd1b5430c89ea09d3d305c160405160405180910390a250565b60008080549050826000815181106104e7576104e661093a565b5b60200260200101516104f99190610aa5565b905060008082815481106105105761050f61093a565b5b9060005260206000200160009054906101000a900473ffffffffffffffffffffffffffffffffffffffff16905080600160006101000a81548173ffffffffffffffffffffffffffffffffffffffff021916908373ffffffffffffffffffffffffffffffffffffffff16021790555060008173ffffffffffffffffffffffffffffffffffffffff16476040516105a490610b07565b60006040518083038185875af1925050503d80600081146105e1576040519150601f19603f3d011682016040523d82523d6000602084013e6105e6565b606091505b5050905080610621576040517fa1d04b3900000000000000000000000000000000000000000000000000000000815260040160405180910390fd5b7f5b690ec4a06fe979403046eaeea5b3ce38524683c3001f662c8b5a829632f7df826040516106509190610b7b565b60405180910390a15050505050565b6000819050919050565b6106728161065f565b82525050565b600060208201905061068d6000830184610669565b92915050565b6000604051905090565b600080fd5b600080fd5b6106b08161065f565b81146106bb57600080fd5b50565b6000813590506106cd816106a7565b92915050565b600080fd5b6000601f19601f8301169050919050565b7f4e487b7100000000000000000000000000000000000000000000000000000000600052604160045260246000fd5b610721826106d8565b810181811067ffffffffffffffff821117156107405761073f6106e9565b5b80604052505050565b6000610753610693565b905061075f8282610718565b919050565b600067ffffffffffffffff82111561077f5761077e6106e9565b5b602082029050602081019050919050565b600080fd5b60006107a86107a384610764565b610749565b905080838252602082019050602084028301858111156107cb576107ca610790565b5b835b818110156107f457806107e088826106be565b8452602084019350506020810190506107cd565b5050509392505050565b600082601f830112610813576108126106d3565b5b8135610823848260208601610795565b91505092915050565b600080604083850312156108435761084261069d565b5b6000610851858286016106be565b925050602083013567ffffffffffffffff811115610872576108716106a2565b5b61087e858286016107fe565b9150509250929050565b600073ffffffffffffffffffffffffffffffffffffffff82169050919050565b60006108b382610888565b9050919050565b6108c3816108a8565b82525050565b60006020820190506108de60008301846108ba565b92915050565b6000602082840312156108fa576108f961069d565b5b6000610908848285016106be565b91505092915050565b600060408201905061092660008301856108ba565b61093360208301846108ba565b9392505050565b7f4e487b7100000000000000000000000000000000000000000000000000000000600052603260045260246000fd5b6000819050919050565b61097c81610969565b82525050565b600067ffffffffffffffff82169050919050565b61099f81610982565b82525050565b600061ffff82169050919050565b6109bc816109a5565b82525050565b600063ffffffff82169050919050565b6109db816109c2565b82525050565b600060a0820190506109f66000830188610973565b610a036020830187610996565b610a1060408301866109b3565b610a1d60608301856109d2565b610a2a60808301846109d2565b9695505050505050565b600081519050610a43816106a7565b92915050565b600060208284031215610a5f57610a5e61069d565b5b6000610a6d84828501610a34565b91505092915050565b7f4e487b7100000000000000000000000000000000000000000000000000000000600052601260045260246000fd5b6000610ab08261065f565b9150610abb8361065f565b925082610acb57610aca610a76565b5b828206905092915050565b600081905092915050565b50565b6000610af1600083610ad6565b9150610afc82610ae1565b600082019050919050565b6000610b1282610ae4565b9150819050919050565b6000819050919050565b6000610b41610b3c610b3784610888565b610b1c565b610888565b9050919050565b6000610b5382610b26565b9050919050565b6000610b6582610b48565b9050919050565b610b7581610b5a565b82525050565b6000602082019050610b906000830184610b6c565b9291505056fea26469706673582212209a386f4a14d2f7488acdb82924eccb57754f608e6b86ba52b6813dbfff28b17764736f6c63430008150033",
  "linkReferences": {},
  "deployedLinkReferences": {}
}