{
  "address": "0xCf7Ed3AccA5a467e9e704C703E8D87F634fB0Fc9",
  "abi": [
    {
      "inputs": [
        {
          "internalType": "address",
          "name": "vrfCoordinatorV2",
          "type": "address"
        },
        {
          "internalType": "uint256",
          "name": "entranceFee",
          "type": "uint256"
        },
        {
          "internalType": "bytes32",
          "name": "gasLane",
          "type": "bytes32"
        },
        {
          "internalType": "uint64",
          "name": "subscriptionId",
          "type": "uint64"
        },
        {
          "internalType": "uint32",
          "name": "callbackGasLimit",
          "type": "uint32"
        },
        {
          "internalType": "uint256",
          "name": "interval",
          "type": "uint256"
        }
      ],
      "stateMutability": "nonpayable",
      "type": "constructor"
    },
    {
      "inputs": [
        {
          "internalType": "address",
          "name": "have",
          "type": "address"
        },
        {
          "internalType": "address",
          "name": "want",
          "type": "address"
        }
      ],
      "name": "OnlyCoordinatorCanFulfill",
      "type": "error"
    },
    {
      "inputs": [],
      "name": "Raffle__NotEnoughETHEntered",
      "type": "error"
    },
    {
      "inputs": [],
      "name": "Raffle__NotOpen",
      "type": "error"
    },
    {
      "inputs": [],
      "name": "Raffle__TransferFailed",
      "type": "error"
    },
    {
      "inputs": [
        {
          "internalType": "uint256",
          "name": "currrntBalace",
          "type": "uint256"
        },
        {
          "internalType": "uint256",
          "name": "numPlayers",
          "type": "uint256"
        },
        {
          "internalType": "uint256",
          "name": "raffleState",
          "type": "uint256"
        }
      ],
      "name": "Raffle__UpkeepNotNeeded",
      "type": "error"
    },
    {
      "anonymous": false,
      "inputs": [
        {
          "indexed": true,
          "internalType": "address",
          "name": "player",
          "type": "address"
        }
      ],
      "name": "RaffleEnter",
      "type": "event"
    },
    {
      "anonymous": false,
      "inputs": [
        {
          "indexed": true,
          "internalType": "uint256",
          "name": "requestId",
          "type": "uint256"
        }
      ],
      "name": "RequestedRaffleWinnerId",
      "type": "event"
    },
    {
      "anonymous": false,
      "inputs": [
        {
          "indexed": false,
          "internalType": "address",
          "name": "recentWinner",
          "type": "address"
        }
      ],
      "name": "WinnerPicked",
      "type": "event"
    },
    {
      "inputs": [
        {
          "internalType": "bytes",
          "name": "",
          "type": "bytes"
        }
      ],
      "name": "checkUpkeep",
      "outputs": [
        {
          "internalType": "bool",
          "name": "upkeepNeeded",
          "type": "bool"
        },
        {
          "internalType": "bytes",
          "name": "",
          "type": "bytes"
        }
      ],
      "stateMutability": "nonpayable",
      "type": "function"
    },
    {
      "inputs": [],
      "name": "enterRaffle",
      "outputs": [],
      "stateMutability": "payable",
      "type": "function"
    },
    {
      "inputs": [],
      "name": "getEntranceFee",
      "outputs": [
        {
          "internalType": "uint256",
          "name": "",
          "type": "uint256"
        }
      ],
      "stateMutability": "view",
      "type": "function"
    },
    {
      "inputs": [],
      "name": "getNumWords",
      "outputs": [
        {
          "internalType": "uint256",
          "name": "",
          "type": "uint256"
        }
      ],
      "stateMutability": "pure",
      "type": "function"
    },
    {
      "inputs": [
        {
          "internalType": "uint256",
          "name": "index",
          "type": "uint256"
        }
      ],
      "name": "getPlayer",
      "outputs": [
        {
          "internalType": "address",
          "name": "",
          "type": "address"
        }
      ],
      "stateMutability": "view",
      "type": "function"
    },
    {
      "inputs": [],
      "name": "getRaffleState",
      "outputs": [
        {
          "internalType": "enum Raffle.RaffleState",
          "name": "",
          "type": "uint8"
        }
      ],
      "stateMutability": "view",
      "type": "function"
    },
    {
      "inputs": [],
      "name": "getRencentWinner",
      "outputs": [
        {
          "internalType": "address",
          "name": "",
          "type": "address"
        }
      ],
      "stateMutability": "view",
      "type": "function"
    },
    {
      "inputs": [
        {
          "internalType": "bytes",
          "name": "",
          "type": "bytes"
        }
      ],
      "name": "performUpkeep",
      "outputs": [],
      "stateMutability": "nonpayable",
      "type": "function"
    },
    {
      "inputs": [
        {
          "internalType": "uint256",
          "name": "requestId",
          "type": "uint256"
        },
        {
          "internalType": "uint256[]",
          "name": "randomWords",
          "type": "uint256[]"
        }
      ],
      "name": "rawFulfillRandomWords",
      "outputs": [],
      "stateMutability": "nonpayable",
      "type": "function"
    }
  ],
  "transactionHash": "0xf31b8433fab1e535ef923fa0c6fa5031e524b9109e9a10b671beaf1a81868bbf",
  "args": [
    "0x5FbDB2315678afecb367f032d93F642f64180aa3",
    "10000000000000000",
    "0x474e34a077df58807dbe9c96d3c009b23b3c6d0cce433e59bbf5b34f823bc56c",
    1,
    "500000",
    "30"
  ],
  "numDeployments": 1,
  "solcInputHash": "afaca559629422b0b66f510df3e51e40",
  "bytecode": "0x6101606040523480156200001257600080fd5b506040516200173638038062001736833981810160405281019062000038919062000294565b858073ffffffffffffffffffffffffffffffffffffffff1660808173ffffffffffffffffffffffffffffffffffffffff1681525050508460a081815250508573ffffffffffffffffffffffffffffffffffffffff1660c08173ffffffffffffffffffffffffffffffffffffffff16815250508360e081815250508267ffffffffffffffff166101208167ffffffffffffffff16815250508163ffffffff166101008163ffffffff16815250506000600160146101000a81548160ff021916908360018111156200010d576200010c62000330565b5b0217905550426002819055508061014081815250505050505050506200035f565b600080fd5b600073ffffffffffffffffffffffffffffffffffffffff82169050919050565b6000620001608262000133565b9050919050565b620001728162000153565b81146200017e57600080fd5b50565b600081519050620001928162000167565b92915050565b6000819050919050565b620001ad8162000198565b8114620001b957600080fd5b50565b600081519050620001cd81620001a2565b92915050565b6000819050919050565b620001e881620001d3565b8114620001f457600080fd5b50565b6000815190506200020881620001dd565b92915050565b600067ffffffffffffffff82169050919050565b6200022d816200020e565b81146200023957600080fd5b50565b6000815190506200024d8162000222565b92915050565b600063ffffffff82169050919050565b6200026e8162000253565b81146200027a57600080fd5b50565b6000815190506200028e8162000263565b92915050565b60008060008060008060c08789031215620002b457620002b36200012e565b5b6000620002c489828a0162000181565b9650506020620002d789828a01620001bc565b9550506040620002ea89828a01620001f7565b9450506060620002fd89828a016200023c565b93505060806200031089828a016200027d565b92505060a06200032389828a01620001bc565b9150509295509295509295565b7f4e487b7100000000000000000000000000000000000000000000000000000000600052602160045260246000fd5b60805160a05160c05160e05161010051610120516101405161136e620003c860003960006106e8015260006105ba015260006105dd015260006105990152600061055d015260008181610212015261030f01526000818161024f01526102a3015261136e6000f3fe6080604052600436106100865760003560e01c8063327638d911610059578063327638d9146101145780634585e33b1461013f57806353a2c19a146101685780636e04ff0d14610193578063e55ae4e8146101d157610086565b806309bc33a71461008b578063115cbaf5146100b65780631fe543e3146100e15780632cfcc5391461010a575b600080fd5b34801561009757600080fd5b506100a061020e565b6040516100ad9190610a7e565b60405180910390f35b3480156100c257600080fd5b506100cb610236565b6040516100d89190610b10565b60405180910390f35b3480156100ed57600080fd5b5061010860048036038101906101039190610cc4565b61024d565b005b61011261030d565b005b34801561012057600080fd5b5061012961047c565b6040516101369190610d61565b60405180910390f35b34801561014b57600080fd5b5061016660048036038101906101619190610dd7565b6104a6565b005b34801561017457600080fd5b5061017d610696565b60405161018a9190610a7e565b60405180910390f35b34801561019f57600080fd5b506101ba60048036038101906101b59190610ed9565b6106a5565b6040516101c8929190610fbc565b60405180910390f35b3480156101dd57600080fd5b506101f860048036038101906101f39190610fec565b610752565b6040516102059190610d61565b60405180910390f35b60007f0000000000000000000000000000000000000000000000000000000000000000905090565b6000600160149054906101000a900460ff16905090565b7f000000000000000000000000000000000000000000000000000000000000000073ffffffffffffffffffffffffffffffffffffffff163373ffffffffffffffffffffffffffffffffffffffff16146102ff57337f00000000000000000000000000000000000000000000000000000000000000006040517f1cf993f40000000000000000000000000000000000000000000000000000000081526004016102f6929190611019565b60405180910390fd5b6103098282610799565b5050565b7f0000000000000000000000000000000000000000000000000000000000000000341015610367576040517fbd4e069500000000000000000000000000000000000000000000000000000000815260040160405180910390fd5b6000600181111561037b5761037a610a99565b5b600160149054906101000a900460ff16600181111561039d5761039c610a99565b5b146103d4576040517f1425571c00000000000000000000000000000000000000000000000000000000815260040160405180910390fd5b6000339080600181540180825580915050600190039060005260206000200160009091909190916101000a81548173ffffffffffffffffffffffffffffffffffffffff021916908373ffffffffffffffffffffffffffffffffffffffff1602179055503373ffffffffffffffffffffffffffffffffffffffff167f0805e1d667bddb8a95f0f09880cf94f403fb596ce79928d9f29b74203ba284d460405160405180910390a2565b6000600160009054906101000a900473ffffffffffffffffffffffffffffffffffffffff16905090565b60006104c0604051806020016040528060008152506106a5565b5090508061052f5747600080549050600160149054906101000a900460ff1660018111156104f1576104f0610a99565b5b6040517f584327aa00000000000000000000000000000000000000000000000000000000815260040161052693929190611042565b60405180910390fd5b60018060146101000a81548160ff0219169083600181111561055457610553610a99565b5b021790555060007f000000000000000000000000000000000000000000000000000000000000000073ffffffffffffffffffffffffffffffffffffffff16635d3b1d307f00000000000000000000000000000000000000000000000000000000000000007f000000000000000000000000000000000000000000000000000000000000000060037f000000000000000000000000000000000000000000000000000000000000000060016040518663ffffffff1660e01b815260040161061e9594939291906110f1565b6020604051808303816000875af115801561063d573d6000803e3d6000fd5b505050506040513d601f19601f820116820180604052508101906106619190611159565b9050807f20e6488f32979e686d06d9d973b6d567758cb2b54dd1b5430c89ea09d3d305c160405160405180910390a250505050565b6000600163ffffffff16905090565b600060606000600160149054906101000a900460ff1660018111156106cd576106cc610a99565b5b600060018111156106e1576106e0610a99565b5b14905060007f00000000000000000000000000000000000000000000000000000000000000006002544261071591906111b5565b119050600080600080549050119050600080471190508380156107355750825b801561073e5750815b80156107475750805b955050505050915091565b6000808281548110610767576107666111e9565b5b9060005260206000200160009054906101000a900473ffffffffffffffffffffffffffffffffffffffff169050919050565b60008080549050826000815181106107b4576107b36111e9565b5b60200260200101516107c69190611247565b905060008082815481106107dd576107dc6111e9565b5b9060005260206000200160009054906101000a900473ffffffffffffffffffffffffffffffffffffffff16905080600160006101000a81548173ffffffffffffffffffffffffffffffffffffffff021916908373ffffffffffffffffffffffffffffffffffffffff1602179055506000600160146101000a81548160ff0219169083600181111561087157610870610a99565b5b0217905550600067ffffffffffffffff81111561089157610890610b81565b5b6040519080825280602002602001820160405280156108bf5781602001602082028036833780820191505090505b50600090805190602001906108d59291906109be565b504260028190555060008173ffffffffffffffffffffffffffffffffffffffff1647604051610903906112a9565b60006040518083038185875af1925050503d8060008114610940576040519150601f19603f3d011682016040523d82523d6000602084013e610945565b606091505b5050905080610980576040517fa1d04b3900000000000000000000000000000000000000000000000000000000815260040160405180910390fd5b7f5b690ec4a06fe979403046eaeea5b3ce38524683c3001f662c8b5a829632f7df826040516109af919061131d565b60405180910390a15050505050565b828054828255906000526020600020908101928215610a37579160200282015b82811115610a365782518260006101000a81548173ffffffffffffffffffffffffffffffffffffffff021916908373ffffffffffffffffffffffffffffffffffffffff160217905550916020019190600101906109de565b5b509050610a449190610a48565b5090565b5b80821115610a61576000816000905550600101610a49565b5090565b6000819050919050565b610a7881610a65565b82525050565b6000602082019050610a936000830184610a6f565b92915050565b7f4e487b7100000000000000000000000000000000000000000000000000000000600052602160045260246000fd5b60028110610ad957610ad8610a99565b5b50565b6000819050610aea82610ac8565b919050565b6000610afa82610adc565b9050919050565b610b0a81610aef565b82525050565b6000602082019050610b256000830184610b01565b92915050565b6000604051905090565b600080fd5b600080fd5b610b4881610a65565b8114610b5357600080fd5b50565b600081359050610b6581610b3f565b92915050565b600080fd5b6000601f19601f8301169050919050565b7f4e487b7100000000000000000000000000000000000000000000000000000000600052604160045260246000fd5b610bb982610b70565b810181811067ffffffffffffffff82111715610bd857610bd7610b81565b5b80604052505050565b6000610beb610b2b565b9050610bf78282610bb0565b919050565b600067ffffffffffffffff821115610c1757610c16610b81565b5b602082029050602081019050919050565b600080fd5b6000610c40610c3b84610bfc565b610be1565b90508083825260208201905060208402830185811115610c6357610c62610c28565b5b835b81811015610c8c5780610c788882610b56565b845260208401935050602081019050610c65565b5050509392505050565b600082601f830112610cab57610caa610b6b565b5b8135610cbb848260208601610c2d565b91505092915050565b60008060408385031215610cdb57610cda610b35565b5b6000610ce985828601610b56565b925050602083013567ffffffffffffffff811115610d0a57610d09610b3a565b5b610d1685828601610c96565b9150509250929050565b600073ffffffffffffffffffffffffffffffffffffffff82169050919050565b6000610d4b82610d20565b9050919050565b610d5b81610d40565b82525050565b6000602082019050610d766000830184610d52565b92915050565b600080fd5b60008083601f840112610d9757610d96610b6b565b5b8235905067ffffffffffffffff811115610db457610db3610d7c565b5b602083019150836001820283011115610dd057610dcf610c28565b5b9250929050565b60008060208385031215610dee57610ded610b35565b5b600083013567ffffffffffffffff811115610e0c57610e0b610b3a565b5b610e1885828601610d81565b92509250509250929050565b600080fd5b600067ffffffffffffffff821115610e4457610e43610b81565b5b610e4d82610b70565b9050602081019050919050565b82818337600083830152505050565b6000610e7c610e7784610e29565b610be1565b905082815260208101848484011115610e9857610e97610e24565b5b610ea3848285610e5a565b509392505050565b600082601f830112610ec057610ebf610b6b565b5b8135610ed0848260208601610e69565b91505092915050565b600060208284031215610eef57610eee610b35565b5b600082013567ffffffffffffffff811115610f0d57610f0c610b3a565b5b610f1984828501610eab565b91505092915050565b60008115159050919050565b610f3781610f22565b82525050565b600081519050919050565b600082825260208201905092915050565b60005b83811015610f77578082015181840152602081019050610f5c565b60008484015250505050565b6000610f8e82610f3d565b610f988185610f48565b9350610fa8818560208601610f59565b610fb181610b70565b840191505092915050565b6000604082019050610fd16000830185610f2e565b8181036020830152610fe38184610f83565b90509392505050565b60006020828403121561100257611001610b35565b5b600061101084828501610b56565b91505092915050565b600060408201905061102e6000830185610d52565b61103b6020830184610d52565b9392505050565b60006060820190506110576000830186610a6f565b6110646020830185610a6f565b6110716040830184610a6f565b949350505050565b6000819050919050565b61108c81611079565b82525050565b600067ffffffffffffffff82169050919050565b6110af81611092565b82525050565b600061ffff82169050919050565b6110cc816110b5565b82525050565b600063ffffffff82169050919050565b6110eb816110d2565b82525050565b600060a0820190506111066000830188611083565b61111360208301876110a6565b61112060408301866110c3565b61112d60608301856110e2565b61113a60808301846110e2565b9695505050505050565b60008151905061115381610b3f565b92915050565b60006020828403121561116f5761116e610b35565b5b600061117d84828501611144565b91505092915050565b7f4e487b7100000000000000000000000000000000000000000000000000000000600052601160045260246000fd5b60006111c082610a65565b91506111cb83610a65565b92508282039050818111156111e3576111e2611186565b5b92915050565b7f4e487b7100000000000000000000000000000000000000000000000000000000600052603260045260246000fd5b7f4e487b7100000000000000000000000000000000000000000000000000000000600052601260045260246000fd5b600061125282610a65565b915061125d83610a65565b92508261126d5761126c611218565b5b828206905092915050565b600081905092915050565b50565b6000611293600083611278565b915061129e82611283565b600082019050919050565b60006112b482611286565b9150819050919050565b6000819050919050565b60006112e36112de6112d984610d20565b6112be565b610d20565b9050919050565b60006112f5826112c8565b9050919050565b6000611307826112ea565b9050919050565b611317816112fc565b82525050565b6000602082019050611332600083018461130e565b9291505056fea2646970667358221220941ca06471d24167a012c2fa94eebe002b98e5cb6993bff4d78d2b579f96f81d64736f6c63430008150033",
  "devdoc": {
    "kind": "dev",
    "methods": {},
    "version": 1
  },
  "userdoc": {
    "kind": "user",
    "methods": {},
    "version": 1
  },
  "storageLayout": {
    "storage": [
      {
        "astId": 203,
        "contract": "contracts/Raffle.sol:Raffle",
        "label": "s_players",
        "offset": 0,
        "slot": "0",
        "type": "t_array(t_address_payable)dyn_storage"
      },
      {
        "astId": 220,
        "contract": "contracts/Raffle.sol:Raffle",
        "label": "s_recenteWinner",
        "offset": 0,
        "slot": "1",
        "type": "t_address"
      },
      {
        "astId": 223,
        "contract": "contracts/Raffle.sol:Raffle",
        "label": "s_RaffleState",
        "offset": 20,
        "slot": "1",
        "type": "t_enum(RaffleState)198"
      },
      {
        "astId": 225,
        "contract": "contracts/Raffle.sol:Raffle",
        "label": "s_lastTimeStamp",
        "offset": 0,
        "slot": "2",
        "type": "t_uint256"
      }
    ],
    "types": {
      "t_address": {
        "encoding": "inplace",
        "label": "address",
        "numberOfBytes": "20"
      },
      "t_address_payable": {
        "encoding": "inplace",
        "label": "address payable",
        "numberOfBytes": "20"
      },
      "t_array(t_address_payable)dyn_storage": {
        "base": "t_address_payable",
        "encoding": "dynamic_array",
        "label": "address payable[]",
        "numberOfBytes": "32"
      },
      "t_enum(RaffleState)198": {
        "encoding": "inplace",
        "label": "enum Raffle.RaffleState",
        "numberOfBytes": "1"
      },
      "t_uint256": {
        "encoding": "inplace",
        "label": "uint256",
        "numberOfBytes": "32"
      }
    }
  }
}